{
  "contractName": "MetaCoin",
  "abi": [
    {
      "inputs": [],
      "payable": false,
      "stateMutability": "nonpayable",
      "type": "constructor"
    },
    {
      "anonymous": false,
      "inputs": [
        {
          "indexed": true,
          "name": "_from",
          "type": "address"
        },
        {
          "indexed": true,
          "name": "_to",
          "type": "address"
        },
        {
          "indexed": false,
          "name": "_val",
          "type": "uint256"
        }
      ],
      "name": "Transfer",
      "type": "event"
    },
    {
      "constant": true,
      "inputs": [
        {
          "name": "addr",
          "type": "address"
        }
      ],
      "name": "getBalance",
      "outputs": [
        {
          "name": "",
          "type": "uint256"
        }
      ],
      "payable": false,
      "stateMutability": "view",
      "type": "function"
    },
    {
      "constant": false,
      "inputs": [
        {
          "name": "receiver",
          "type": "address"
        },
        {
          "name": "amt",
          "type": "uint256"
        }
      ],
      "name": "sendCoin",
      "outputs": [
        {
          "name": "sufficent",
          "type": "bool"
        }
      ],
      "payable": false,
      "stateMutability": "nonpayable",
      "type": "function"
    }
  ],
  "bytecode": "0x6060604052341561000f57600080fd5b600160a060020a033216600090815260208190526040902061271090556101d78061003b6000396000f30060606040526004361061004b5763ffffffff7c010000000000000000000000000000000000000000000000000000000060003504166390b98a118114610050578063f8b2cb4f14610093575b600080fd5b341561005b57600080fd5b61007f73ffffffffffffffffffffffffffffffffffffffff600435166024356100d1565b604051901515815260200160405180910390f35b341561009e57600080fd5b6100bf73ffffffffffffffffffffffffffffffffffffffff60043516610183565b60405190815260200160405180910390f35b73ffffffffffffffffffffffffffffffffffffffff3316600090815260208190526040812054829010156101075750600061017d565b73ffffffffffffffffffffffffffffffffffffffff3381166000818152602081905260408082208054879003905592861680825290839020805486019055917fddf252ad1be2c89b69c2b068fc378daa952ba7f163c4a11628f55a4df523b3ef9085905190815260200160405180910390a35060015b92915050565b73ffffffffffffffffffffffffffffffffffffffff16600090815260208190526040902054905600a165627a7a72305820551718ee96362c2fa23a26274a681e2bcc2230e5b76d3fe6a7af66d6e008a9bf0029",
  "source": "pragma solidity ^0.4.18;\n\n// https://github.com/truffle-box/metacoin-box/blob/master/contracts/MetaCoin.sol\n\n\n/// @title Meta Coin\n/// @notice Simplest coint to show the basic operation, not for production\ncontract MetaCoin {\n\n  mapping (address => uint) balances;\n  \n  event Transfer(address indexed _from, address indexed _to, uint256 _val);\n  \n  \n  function MetaCoin() public {\n    balances[tx.origin] = 10000;\n  }\n  \n  /// @notice Get the balance of the specified account\n  /// @param addr the address of the account\n  /// @return the current balance of the specified account\n  function getBalance(address addr) public view returns(uint){\n    return balances[addr];\n  }\n\n  /// @notice Transfer the balance from the sender's account to the specified account\n  /// @param receiver the receiver's account\n  /// @param amt the amount to transfer\n  /// @return `true` if succeeded, or `false` otherwise\n  function sendCoin(address receiver, uint amt) public returns(bool sufficent){\n    if (balances[msg.sender] < amt) return false;\n    balances[msg.sender] -= amt;\n    balances[receiver] += amt;\n    Transfer(msg.sender, receiver, amt);\n    return true;\n  }\n}",
  "sourcePath": "D:\\home\\git\\exercise3\\thirdstage.exercise.truffle\\contracts\\MetaCoin.sol",
  "compiler": {
    "name": "solc",
    "version": "0.4.19+commit.c4cbbb05.Emscripten.clang"
  },
  "schemaVersion": "2.0.0",
  "updatedAt": "2018-04-09T09:24:26.748Z"
}