{
  "contractName": "RegularERC20",
  "abi": [
    {
      "inputs": [
        {
          "internalType": "string",
          "name": "name",
          "type": "string"
        },
        {
          "internalType": "string",
          "name": "symbol",
          "type": "string"
        }
      ],
      "stateMutability": "nonpayable",
      "type": "constructor"
    },
    {
      "anonymous": false,
      "inputs": [
        {
          "indexed": true,
          "internalType": "address",
          "name": "_owner",
          "type": "address"
        },
        {
          "indexed": true,
          "internalType": "address",
          "name": "_spender",
          "type": "address"
        },
        {
          "indexed": false,
          "internalType": "uint256",
          "name": "_value",
          "type": "uint256"
        }
      ],
      "name": "Approval",
      "type": "event"
    },
    {
      "anonymous": false,
      "inputs": [
        {
          "indexed": true,
          "internalType": "address",
          "name": "_from",
          "type": "address"
        },
        {
          "indexed": true,
          "internalType": "address",
          "name": "_to",
          "type": "address"
        },
        {
          "indexed": false,
          "internalType": "uint256",
          "name": "_value",
          "type": "uint256"
        }
      ],
      "name": "Transfer",
      "type": "event"
    },
    {
      "inputs": [
        {
          "internalType": "address",
          "name": "owner",
          "type": "address"
        },
        {
          "internalType": "address",
          "name": "spender",
          "type": "address"
        }
      ],
      "name": "allowance",
      "outputs": [
        {
          "internalType": "uint256",
          "name": "",
          "type": "uint256"
        }
      ],
      "stateMutability": "view",
      "type": "function"
    },
    {
      "inputs": [
        {
          "internalType": "address",
          "name": "spender",
          "type": "address"
        },
        {
          "internalType": "uint256",
          "name": "amount",
          "type": "uint256"
        }
      ],
      "name": "approve",
      "outputs": [
        {
          "internalType": "bool",
          "name": "",
          "type": "bool"
        }
      ],
      "stateMutability": "nonpayable",
      "type": "function"
    },
    {
      "inputs": [
        {
          "internalType": "address",
          "name": "account",
          "type": "address"
        }
      ],
      "name": "balanceOf",
      "outputs": [
        {
          "internalType": "uint256",
          "name": "",
          "type": "uint256"
        }
      ],
      "stateMutability": "view",
      "type": "function"
    },
    {
      "inputs": [],
      "name": "decimals",
      "outputs": [
        {
          "internalType": "uint8",
          "name": "",
          "type": "uint8"
        }
      ],
      "stateMutability": "view",
      "type": "function"
    },
    {
      "inputs": [],
      "name": "name",
      "outputs": [
        {
          "internalType": "string",
          "name": "",
          "type": "string"
        }
      ],
      "stateMutability": "view",
      "type": "function"
    },
    {
      "inputs": [],
      "name": "symbol",
      "outputs": [
        {
          "internalType": "string",
          "name": "",
          "type": "string"
        }
      ],
      "stateMutability": "view",
      "type": "function"
    },
    {
      "inputs": [],
      "name": "totalSupply",
      "outputs": [
        {
          "internalType": "uint256",
          "name": "",
          "type": "uint256"
        }
      ],
      "stateMutability": "view",
      "type": "function"
    },
    {
      "inputs": [
        {
          "internalType": "address",
          "name": "to",
          "type": "address"
        },
        {
          "internalType": "uint256",
          "name": "amount",
          "type": "uint256"
        }
      ],
      "name": "transfer",
      "outputs": [
        {
          "internalType": "bool",
          "name": "",
          "type": "bool"
        }
      ],
      "stateMutability": "nonpayable",
      "type": "function"
    },
    {
      "inputs": [
        {
          "internalType": "address",
          "name": "from",
          "type": "address"
        },
        {
          "internalType": "address",
          "name": "to",
          "type": "address"
        },
        {
          "internalType": "uint256",
          "name": "amount",
          "type": "uint256"
        }
      ],
      "name": "transferFrom",
      "outputs": [
        {
          "internalType": "bool",
          "name": "",
          "type": "bool"
        }
      ],
      "stateMutability": "nonpayable",
      "type": "function"
    },
    {
      "inputs": [
        {
          "internalType": "address[10]",
          "name": "accounts",
          "type": "address[10]"
        },
        {
          "internalType": "uint256[10]",
          "name": "amounts",
          "type": "uint256[10]"
        }
      ],
      "name": "mint",
      "outputs": [],
      "stateMutability": "nonpayable",
      "type": "function"
    },
    {
      "inputs": [
        {
          "internalType": "address",
          "name": "account",
          "type": "address"
        },
        {
          "internalType": "uint256",
          "name": "amount",
          "type": "uint256"
        }
      ],
      "name": "mint",
      "outputs": [],
      "stateMutability": "nonpayable",
      "type": "function"
    },
    {
      "inputs": [],
      "name": "admin",
      "outputs": [
        {
          "internalType": "address",
          "name": "",
          "type": "address"
        }
      ],
      "stateMutability": "view",
      "type": "function"
    }
  ],
  "bytecode": "0x60806040523480156200001157600080fd5b5060405162001c7e38038062001c7e833981810160405281019062000037919062000259565b8181601282600390816200004c919062000529565b5081600490816200005e919062000529565b5080600560006101000a81548160ff021916908360ff16021790555050505033600560016101000a81548173ffffffffffffffffffffffffffffffffffffffff021916908373ffffffffffffffffffffffffffffffffffffffff160217905550505062000610565b6000604051905090565b600080fd5b600080fd5b600080fd5b600080fd5b6000601f19601f8301169050919050565b7f4e487b7100000000000000000000000000000000000000000000000000000000600052604160045260246000fd5b6200012f82620000e4565b810181811067ffffffffffffffff82111715620001515762000150620000f5565b5b80604052505050565b600062000166620000c6565b905062000174828262000124565b919050565b600067ffffffffffffffff821115620001975762000196620000f5565b5b620001a282620000e4565b9050602081019050919050565b60005b83811015620001cf578082015181840152602081019050620001b2565b60008484015250505050565b6000620001f2620001ec8462000179565b6200015a565b905082815260208101848484011115620002115762000210620000df565b5b6200021e848285620001af565b509392505050565b600082601f8301126200023e576200023d620000da565b5b815162000250848260208601620001db565b91505092915050565b60008060408385031215620002735762000272620000d0565b5b600083015167ffffffffffffffff811115620002945762000293620000d5565b5b620002a28582860162000226565b925050602083015167ffffffffffffffff811115620002c657620002c5620000d5565b5b620002d48582860162000226565b9150509250929050565b600081519050919050565b7f4e487b7100000000000000000000000000000000000000000000000000000000600052602260045260246000fd5b600060028204905060018216806200033157607f821691505b602082108103620003475762000346620002e9565b5b50919050565b60008190508160005260206000209050919050565b60006020601f8301049050919050565b600082821b905092915050565b600060088302620003b17fffffffffffffffffffffffffffffffffffffffffffffffffffffffffffffffff8262000372565b620003bd868362000372565b95508019841693508086168417925050509392505050565b6000819050919050565b6000819050919050565b60006200040a62000404620003fe84620003d5565b620003df565b620003d5565b9050919050565b6000819050919050565b6200042683620003e9565b6200043e620004358262000411565b8484546200037f565b825550505050565b600090565b6200045562000446565b620004628184846200041b565b505050565b5b818110156200048a576200047e6000826200044b565b60018101905062000468565b5050565b601f821115620004d957620004a3816200034d565b620004ae8462000362565b81016020851015620004be578190505b620004d6620004cd8562000362565b83018262000467565b50505b505050565b600082821c905092915050565b6000620004fe60001984600802620004de565b1980831691505092915050565b6000620005198383620004eb565b9150826002028217905092915050565b6200053482620002de565b67ffffffffffffffff81111562000550576200054f620000f5565b5b6200055c825462000318565b620005698282856200048e565b600060209050601f831160018114620005a157600084156200058c578287015190505b6200059885826200050b565b86555062000608565b601f198416620005b1866200034d565b60005b82811015620005db57848901518255600182019150602085019450602081019050620005b4565b86831015620005fb5784890151620005f7601f891682620004eb565b8355505b6001600288020188555050505b505050505050565b61165e80620006206000396000f3fe608060405234801561001057600080fd5b50600436106100b45760003560e01c806340c10f191161007157806340c10f191461018f57806370a08231146101ab57806395d89b41146101db578063a9059cbb146101f9578063dd62ed3e14610229578063f851a44014610259576100b4565b806306fdde03146100b9578063095ea7b3146100d757806318160ddd146101075780631d4930de1461012557806323b872dd14610141578063313ce56714610171575b600080fd5b6100c1610277565b6040516100ce9190610ceb565b60405180910390f35b6100f160048036038101906100ec9190610db0565b610309565b6040516100fe9190610e0b565b60405180910390f35b61010f610400565b60405161011c9190610e35565b60405180910390f35b61013f600480360381019061013a9190611037565b61040a565b005b61015b60048036038101906101569190611079565b6104f6565b6040516101689190610e0b565b60405180910390f35b610179610661565b60405161018691906110e8565b60405180910390f35b6101a960048036038101906101a49190610db0565b610678565b005b6101c560048036038101906101c09190611103565b610716565b6040516101d29190610e35565b60405180910390f35b6101e361075e565b6040516101f09190610ceb565b60405180910390f35b610213600480360381019061020e9190610db0565b6107f0565b6040516102209190610e0b565b60405180910390f35b610243600480360381019061023e9190611130565b61080c565b6040516102509190610e35565b60405180910390f35b610261610893565b60405161026e919061117f565b60405180910390f35b606060038054610286906111c9565b80601f01602080910402602001604051908101604052809291908181526020018280546102b2906111c9565b80156102ff5780601f106102d4576101008083540402835291602001916102ff565b820191906000526020600020905b8154815290600101906020018083116102e257829003601f168201915b5050505050905090565b60008033905082600160008373ffffffffffffffffffffffffffffffffffffffff1673ffffffffffffffffffffffffffffffffffffffff16815260200190815260200160002060008673ffffffffffffffffffffffffffffffffffffffff1673ffffffffffffffffffffffffffffffffffffffff168152602001908152602001600020819055508373ffffffffffffffffffffffffffffffffffffffff168173ffffffffffffffffffffffffffffffffffffffff167f8c5be1e5ebec7d5bd14f71427d1e84f3dd0314c0f7b2291e5b200ac8c7c3b925856040516103ed9190610e35565b60405180910390a3600191505092915050565b6000600254905090565b600560019054906101000a900473ffffffffffffffffffffffffffffffffffffffff1673ffffffffffffffffffffffffffffffffffffffff163373ffffffffffffffffffffffffffffffffffffffff161461049a576040517f08c379a00000000000000000000000000000000000000000000000000000000081526004016104919061126c565b60405180910390fd5b60005b600a8110156104f1576104de8382600a81106104bc576104bb61128c565b5b60200201518383600a81106104d4576104d361128c565b5b60200201516108bd565b80806104e9906112ea565b91505061049d565b505050565b6000803390506000610508868361080c565b90508381101561054d576040517f08c379a00000000000000000000000000000000000000000000000000000000081526004016105449061137e565b60405180910390fd5b8381610559919061139e565b600160008873ffffffffffffffffffffffffffffffffffffffff1673ffffffffffffffffffffffffffffffffffffffff16815260200190815260200160002060008473ffffffffffffffffffffffffffffffffffffffff1673ffffffffffffffffffffffffffffffffffffffff168152602001908152602001600020819055508173ffffffffffffffffffffffffffffffffffffffff168673ffffffffffffffffffffffffffffffffffffffff167f8c5be1e5ebec7d5bd14f71427d1e84f3dd0314c0f7b2291e5b200ac8c7c3b9258684610634919061139e565b6040516106419190610e35565b60405180910390a36106548686866109fb565b6001925050509392505050565b6000600560009054906101000a900460ff16905090565b600560019054906101000a900473ffffffffffffffffffffffffffffffffffffffff1673ffffffffffffffffffffffffffffffffffffffff163373ffffffffffffffffffffffffffffffffffffffff1614610708576040517f08c379a00000000000000000000000000000000000000000000000000000000081526004016106ff9061126c565b60405180910390fd5b61071282826108bd565b5050565b60008060008373ffffffffffffffffffffffffffffffffffffffff1673ffffffffffffffffffffffffffffffffffffffff168152602001908152602001600020549050919050565b60606004805461076d906111c9565b80601f0160208091040260200160405190810160405280929190818152602001828054610799906111c9565b80156107e65780601f106107bb576101008083540402835291602001916107e6565b820191906000526020600020905b8154815290600101906020018083116107c957829003601f168201915b5050505050905090565b6000803390506108018185856109fb565b600191505092915050565b6000600160008473ffffffffffffffffffffffffffffffffffffffff1673ffffffffffffffffffffffffffffffffffffffff16815260200190815260200160002060008373ffffffffffffffffffffffffffffffffffffffff1673ffffffffffffffffffffffffffffffffffffffff16815260200190815260200160002054905092915050565b6000600560019054906101000a900473ffffffffffffffffffffffffffffffffffffffff16905090565b600073ffffffffffffffffffffffffffffffffffffffff168273ffffffffffffffffffffffffffffffffffffffff160361092c576040517f08c379a00000000000000000000000000000000000000000000000000000000081526004016109239061141e565b60405180910390fd5b806002600082825461093e919061143e565b92505081905550806000808473ffffffffffffffffffffffffffffffffffffffff1673ffffffffffffffffffffffffffffffffffffffff168152602001908152602001600020600082825401925050819055508173ffffffffffffffffffffffffffffffffffffffff16600073ffffffffffffffffffffffffffffffffffffffff167fddf252ad1be2c89b69c2b068fc378daa952ba7f163c4a11628f55a4df523b3ef836040516109ef9190610e35565b60405180910390a35050565b600073ffffffffffffffffffffffffffffffffffffffff168373ffffffffffffffffffffffffffffffffffffffff1603610a6a576040517f08c379a0000000000000000000000000000000000000000000000000000000008152600401610a61906114e4565b60405180910390fd5b600073ffffffffffffffffffffffffffffffffffffffff168273ffffffffffffffffffffffffffffffffffffffff1603610ad9576040517f08c379a0000000000000000000000000000000000000000000000000000000008152600401610ad090611576565b60405180910390fd5b60008060008573ffffffffffffffffffffffffffffffffffffffff1673ffffffffffffffffffffffffffffffffffffffff16815260200190815260200160002054905081811015610b5f576040517f08c379a0000000000000000000000000000000000000000000000000000000008152600401610b5690611608565b60405180910390fd5b8181036000808673ffffffffffffffffffffffffffffffffffffffff1673ffffffffffffffffffffffffffffffffffffffff16815260200190815260200160002081905550816000808573ffffffffffffffffffffffffffffffffffffffff1673ffffffffffffffffffffffffffffffffffffffff168152602001908152602001600020600082825401925050819055508273ffffffffffffffffffffffffffffffffffffffff168473ffffffffffffffffffffffffffffffffffffffff167fddf252ad1be2c89b69c2b068fc378daa952ba7f163c4a11628f55a4df523b3ef84604051610c4d9190610e35565b60405180910390a350505050565b600081519050919050565b600082825260208201905092915050565b60005b83811015610c95578082015181840152602081019050610c7a565b60008484015250505050565b6000601f19601f8301169050919050565b6000610cbd82610c5b565b610cc78185610c66565b9350610cd7818560208601610c77565b610ce081610ca1565b840191505092915050565b60006020820190508181036000830152610d058184610cb2565b905092915050565b6000604051905090565b600080fd5b600073ffffffffffffffffffffffffffffffffffffffff82169050919050565b6000610d4782610d1c565b9050919050565b610d5781610d3c565b8114610d6257600080fd5b50565b600081359050610d7481610d4e565b92915050565b6000819050919050565b610d8d81610d7a565b8114610d9857600080fd5b50565b600081359050610daa81610d84565b92915050565b60008060408385031215610dc757610dc6610d17565b5b6000610dd585828601610d65565b9250506020610de685828601610d9b565b9150509250929050565b60008115159050919050565b610e0581610df0565b82525050565b6000602082019050610e206000830184610dfc565b92915050565b610e2f81610d7a565b82525050565b6000602082019050610e4a6000830184610e26565b92915050565b600080fd5b7f4e487b7100000000000000000000000000000000000000000000000000000000600052604160045260246000fd5b610e8d82610ca1565b810181811067ffffffffffffffff82111715610eac57610eab610e55565b5b80604052505050565b6000610ebf610d0d565b9050610ecb8282610e84565b919050565b600067ffffffffffffffff821115610eeb57610eea610e55565b5b602082029050919050565b600080fd5b6000610f0e610f0984610ed0565b610eb5565b90508060208402830185811115610f2857610f27610ef6565b5b835b81811015610f515780610f3d8882610d65565b845260208401935050602081019050610f2a565b5050509392505050565b600082601f830112610f7057610f6f610e50565b5b600a610f7d848285610efb565b91505092915050565b600067ffffffffffffffff821115610fa157610fa0610e55565b5b602082029050919050565b6000610fbf610fba84610f86565b610eb5565b90508060208402830185811115610fd957610fd8610ef6565b5b835b818110156110025780610fee8882610d9b565b845260208401935050602081019050610fdb565b5050509392505050565b600082601f83011261102157611020610e50565b5b600a61102e848285610fac565b91505092915050565b600080610280838503121561104f5761104e610d17565b5b600061105d85828601610f5b565b92505061014061106f8582860161100c565b9150509250929050565b60008060006060848603121561109257611091610d17565b5b60006110a086828701610d65565b93505060206110b186828701610d65565b92505060406110c286828701610d9b565b9150509250925092565b600060ff82169050919050565b6110e2816110cc565b82525050565b60006020820190506110fd60008301846110d9565b92915050565b60006020828403121561111957611118610d17565b5b600061112784828501610d65565b91505092915050565b6000806040838503121561114757611146610d17565b5b600061115585828601610d65565b925050602061116685828601610d65565b9150509250929050565b61117981610d3c565b82525050565b60006020820190506111946000830184611170565b92915050565b7f4e487b7100000000000000000000000000000000000000000000000000000000600052602260045260246000fd5b600060028204905060018216806111e157607f821691505b6020821081036111f4576111f361119a565b5b50919050565b7f526567756c617245524332303a204d75737420626520616e2061646d696e207460008201527f6f206d696e742e00000000000000000000000000000000000000000000000000602082015250565b6000611256602783610c66565b9150611261826111fa565b604082019050919050565b6000602082019050818103600083015261128581611249565b9050919050565b7f4e487b7100000000000000000000000000000000000000000000000000000000600052603260045260246000fd5b7f4e487b7100000000000000000000000000000000000000000000000000000000600052601160045260246000fd5b60006112f582610d7a565b91507fffffffffffffffffffffffffffffffffffffffffffffffffffffffffffffffff8203611327576113266112bb565b5b600182019050919050565b7f45524332303a20696e73756666696369656e7420616c6c6f77616e6365000000600082015250565b6000611368601d83610c66565b915061137382611332565b602082019050919050565b600060208201905081810360008301526113978161135b565b9050919050565b60006113a982610d7a565b91506113b483610d7a565b92508282039050818111156113cc576113cb6112bb565b5b92915050565b7f45524332303a206d696e7420746f20746865207a65726f206164647265737300600082015250565b6000611408601f83610c66565b9150611413826113d2565b602082019050919050565b60006020820190508181036000830152611437816113fb565b9050919050565b600061144982610d7a565b915061145483610d7a565b925082820190508082111561146c5761146b6112bb565b5b92915050565b7f45524332303a207472616e736665722066726f6d20746865207a65726f20616460008201527f6472657373000000000000000000000000000000000000000000000000000000602082015250565b60006114ce602583610c66565b91506114d982611472565b604082019050919050565b600060208201905081810360008301526114fd816114c1565b9050919050565b7f45524332303a207472616e7366657220746f20746865207a65726f206164647260008201527f6573730000000000000000000000000000000000000000000000000000000000602082015250565b6000611560602383610c66565b915061156b82611504565b604082019050919050565b6000602082019050818103600083015261158f81611553565b9050919050565b7f45524332303a207472616e7366657220616d6f756e742065786365656473206260008201527f616c616e63650000000000000000000000000000000000000000000000000000602082015250565b60006115f2602683610c66565b91506115fd82611596565b604082019050919050565b60006020820190508181036000830152611621816115e5565b905091905056fea2646970667358221220bf1287de525c73918662b1eba47430452c770ae8274416f5fe677dee903c88bf64736f6c63430008130033",
  "immutableReferences": {},
  "source": "// SPDX-License-Identifier: MIT\r\npragma solidity ^0.8.0;\r\n\r\nimport \"./ERC20Base.sol\";\r\nimport \"./ERC20Metadata.sol\";\r\n\r\ncontract RegularERC20 is ERC20Base, ERC20Metadata {\r\n\r\n    address private _admin;\r\n\r\n    constructor(string memory name, string memory symbol) ERC20Metadata(name, symbol, 18){\r\n        _admin = msg.sender;\r\n    }\r\n\r\n    function mint(address account, uint256 amount) public virtual{\r\n        require(msg.sender == _admin, \"RegularERC20: Must be an admin to mint.\");\r\n        _mint(account, amount);\r\n    }\r\n\r\n    function mint(address[10] memory accounts, uint256[10] memory amounts) public virtual{\r\n        require(msg.sender == _admin, \"RegularERC20: Must be an admin to mint.\");\r\n        for(uint256 i = 0; i < 10; i++){ _mint(accounts[i], amounts[i]); }       \r\n    }\r\n\r\n    function admin() public view returns (address){\r\n        return _admin;\r\n    }\r\n}\r\n",
  "sourcePath": "/Users/3rdstage/Git/Repos/3rdstage/smart-contract-dev-101-sample/contracts/erc20/RegularERC20.sol",
  "compiler": {
    "name": "solc",
    "version": "0.8.19+commit.7dd6d404.Emscripten.clang"
  },
  "schemaVersion": "3.4.11",
  "updatedAt": "2023-05-09T05:39:15.507Z",
  "devdoc": {
    "events": {
      "Approval(address,address,uint256)": {
        "details": "MUST trigger on any successful call to `approve(address spender, uint256 value)`"
      },
      "Transfer(address,address,uint256)": {
        "details": "MUST trigger when tokens are transferred, including zero value transfers"
      }
    },
    "kind": "dev",
    "methods": {
      "allowance(address,address)": {
        "details": "Returns the amount which `spender` is still allowed to withdraw from `owner`."
      },
      "decimals()": {
        "details": "Returns the number of decimals the token uses - e.g. `8`, means to divide the token amount by `100000000` to get its user representation."
      },
      "name()": {
        "details": "Returns the name of the token - e.g. \"MyToken\"."
      },
      "symbol()": {
        "details": "Returns the symbol of the token. E.g. HIX."
      },
      "totalSupply()": {
        "details": "Returns the total token supply."
      }
    },
    "version": 1
  },
  "userdoc": {
    "kind": "user",
    "methods": {},
    "version": 1
  }
}